{
  "_format": "hh-sol-artifact-1",
  "contractName": "Escrow",
  "sourceName": "contracts/Escrow.sol",
  "abi": [
    {
      "inputs": [
        {
          "internalType": "address",
          "name": "_nftAddress",
          "type": "address"
        },
        {
          "internalType": "address payable",
          "name": "_seller",
          "type": "address"
        },
        {
          "internalType": "address",
          "name": "_inspector",
          "type": "address"
        },
        {
          "internalType": "address",
          "name": "_lender",
          "type": "address"
        }
      ],
      "stateMutability": "nonpayable",
      "type": "constructor"
    },
    {
      "inputs": [
        {
          "internalType": "uint256",
          "name": "_nftID",
          "type": "uint256"
        }
      ],
      "name": "approveSale",
      "outputs": [],
      "stateMutability": "nonpayable",
      "type": "function"
    },
    {
      "inputs": [
        {
          "internalType": "uint256",
          "name": "",
          "type": "uint256"
        }
      ],
      "name": "buyer",
      "outputs": [
        {
          "internalType": "address",
          "name": "",
          "type": "address"
        }
      ],
      "stateMutability": "view",
      "type": "function"
    },
    {
      "inputs": [
        {
          "internalType": "uint256",
          "name": "_nftID",
          "type": "uint256"
        }
      ],
      "name": "cancelSale",
      "outputs": [],
      "stateMutability": "nonpayable",
      "type": "function"
    },
    {
      "inputs": [
        {
          "internalType": "uint256",
          "name": "_nftID",
          "type": "uint256"
        }
      ],
      "name": "depositEarnest",
      "outputs": [],
      "stateMutability": "payable",
      "type": "function"
    },
    {
      "inputs": [
        {
          "internalType": "uint256",
          "name": "",
          "type": "uint256"
        }
      ],
      "name": "escrowAmount",
      "outputs": [
        {
          "internalType": "uint256",
          "name": "",
          "type": "uint256"
        }
      ],
      "stateMutability": "view",
      "type": "function"
    },
    {
      "inputs": [
        {
          "internalType": "uint256",
          "name": "_nftID",
          "type": "uint256"
        }
      ],
      "name": "finalizeSale",
      "outputs": [],
      "stateMutability": "nonpayable",
      "type": "function"
    },
    {
      "inputs": [],
      "name": "getBalance",
      "outputs": [
        {
          "internalType": "uint256",
          "name": "",
          "type": "uint256"
        }
      ],
      "stateMutability": "view",
      "type": "function"
    },
    {
      "inputs": [
        {
          "internalType": "uint256",
          "name": "",
          "type": "uint256"
        }
      ],
      "name": "inspectionPassed",
      "outputs": [
        {
          "internalType": "bool",
          "name": "",
          "type": "bool"
        }
      ],
      "stateMutability": "view",
      "type": "function"
    },
    {
      "inputs": [],
      "name": "inspector",
      "outputs": [
        {
          "internalType": "address",
          "name": "",
          "type": "address"
        }
      ],
      "stateMutability": "view",
      "type": "function"
    },
    {
      "inputs": [
        {
          "internalType": "uint256",
          "name": "",
          "type": "uint256"
        }
      ],
      "name": "isListed",
      "outputs": [
        {
          "internalType": "bool",
          "name": "",
          "type": "bool"
        }
      ],
      "stateMutability": "view",
      "type": "function"
    },
    {
      "inputs": [],
      "name": "lender",
      "outputs": [
        {
          "internalType": "address",
          "name": "",
          "type": "address"
        }
      ],
      "stateMutability": "view",
      "type": "function"
    },
    {
      "inputs": [
        {
          "internalType": "uint256",
          "name": "_nftID",
          "type": "uint256"
        },
        {
          "internalType": "uint256",
          "name": "_purchasePrice",
          "type": "uint256"
        },
        {
          "internalType": "uint256",
          "name": "_escrowAmount",
          "type": "uint256"
        },
        {
          "internalType": "address",
          "name": "_buyer",
          "type": "address"
        }
      ],
      "name": "list",
      "outputs": [],
      "stateMutability": "payable",
      "type": "function"
    },
    {
      "inputs": [],
      "name": "nftAddress",
      "outputs": [
        {
          "internalType": "address",
          "name": "",
          "type": "address"
        }
      ],
      "stateMutability": "view",
      "type": "function"
    },
    {
      "inputs": [
        {
          "internalType": "uint256",
          "name": "",
          "type": "uint256"
        }
      ],
      "name": "purchasePrice",
      "outputs": [
        {
          "internalType": "uint256",
          "name": "",
          "type": "uint256"
        }
      ],
      "stateMutability": "view",
      "type": "function"
    },
    {
      "inputs": [
        {
          "internalType": "uint256",
          "name": "",
          "type": "uint256"
        },
        {
          "internalType": "address",
          "name": "",
          "type": "address"
        }
      ],
      "name": "saleApproved",
      "outputs": [
        {
          "internalType": "bool",
          "name": "",
          "type": "bool"
        }
      ],
      "stateMutability": "view",
      "type": "function"
    },
    {
      "inputs": [],
      "name": "seller",
      "outputs": [
        {
          "internalType": "address payable",
          "name": "",
          "type": "address"
        }
      ],
      "stateMutability": "view",
      "type": "function"
    },
    {
      "inputs": [
        {
          "internalType": "uint256",
          "name": "_nftID",
          "type": "uint256"
        },
        {
          "internalType": "bool",
          "name": "_isPassed",
          "type": "bool"
        }
      ],
      "name": "updateInspectionPassed",
      "outputs": [],
      "stateMutability": "nonpayable",
      "type": "function"
    },
    {
      "stateMutability": "payable",
      "type": "receive"
    }
  ],
  "bytecode": "0x60806040523480156200001157600080fd5b506040516200158c3803806200158c8339818101604052810190620000379190620001f3565b83600360006101000a81548173ffffffffffffffffffffffffffffffffffffffff021916908373ffffffffffffffffffffffffffffffffffffffff16021790555082600260006101000a81548173ffffffffffffffffffffffffffffffffffffffff021916908373ffffffffffffffffffffffffffffffffffffffff16021790555081600160006101000a81548173ffffffffffffffffffffffffffffffffffffffff021916908373ffffffffffffffffffffffffffffffffffffffff160217905550806000806101000a81548173ffffffffffffffffffffffffffffffffffffffff021916908373ffffffffffffffffffffffffffffffffffffffff1602179055505050505062000265565b600080fd5b600073ffffffffffffffffffffffffffffffffffffffff82169050919050565b6000620001768262000149565b9050919050565b620001888162000169565b81146200019457600080fd5b50565b600081519050620001a8816200017d565b92915050565b6000620001bb8262000149565b9050919050565b620001cd81620001ae565b8114620001d957600080fd5b50565b600081519050620001ed81620001c2565b92915050565b6000806000806080858703121562000210576200020f62000144565b5b6000620002208782880162000197565b94505060206200023387828801620001dc565b9350506040620002468782880162000197565b9250506060620002598782880162000197565b91505092959194509250565b61131780620002756000396000f3fe6080604052600436106101025760003560e01c80635eed5fff11610095578063bcead63e11610064578063bcead63e14610357578063bd94b00514610382578063e740f770146103ab578063ed2cee9e146103c7578063fcce4883146103f257610109565b80635eed5fff1461029857806377fbc4ae146102d55780639aa7b81014610312578063aa9293801461032e57610109565b806341ade77d116100d157806341ade77d146101b65780634dd4acaf146101f35780635bf8633a146102305780635d19e56c1461025b57610109565b806308551a531461010e57806312065fe01461013957806314a72feb14610164578063312bbba41461018d57610109565b3661010957005b600080fd5b34801561011a57600080fd5b5061012361042f565b6040516101309190610e3f565b60405180910390f35b34801561014557600080fd5b5061014e610455565b60405161015b9190610e73565b60405180910390f35b34801561017057600080fd5b5061018b60048036038101906101869190610ebf565b61045d565b005b34801561019957600080fd5b506101b460048036038101906101af9190610f24565b6104c9565b005b3480156101c257600080fd5b506101dd60048036038101906101d89190610fa2565b610588565b6040516101ea9190610ff1565b60405180910390f35b3480156101ff57600080fd5b5061021a60048036038101906102159190610ebf565b6105b7565b604051610227919061101b565b60405180910390f35b34801561023c57600080fd5b506102456105ea565b604051610252919061101b565b60405180910390f35b34801561026757600080fd5b50610282600480360381019061027d9190610ebf565b610610565b60405161028f9190610e73565b60405180910390f35b3480156102a457600080fd5b506102bf60048036038101906102ba9190610ebf565b610628565b6040516102cc9190610ff1565b60405180910390f35b3480156102e157600080fd5b506102fc60048036038101906102f79190610ebf565b610648565b6040516103099190610e73565b60405180910390f35b61032c60048036038101906103279190611036565b610660565b005b34801561033a57600080fd5b5061035560048036038101906103509190610ebf565b610835565b005b34801561036357600080fd5b5061036c610bb6565b604051610379919061101b565b60405180910390f35b34801561038e57600080fd5b506103a960048036038101906103a49190610ebf565b610bda565b005b6103c560048036038101906103c09190610ebf565b610cf2565b005b3480156103d357600080fd5b506103dc610db8565b6040516103e9919061101b565b60405180910390f35b3480156103fe57600080fd5b5061041960048036038101906104149190610ebf565b610dde565b6040516104269190610ff1565b60405180910390f35b600260009054906101000a900473ffffffffffffffffffffffffffffffffffffffff1681565b600047905090565b60016009600083815260200190815260200160002060003373ffffffffffffffffffffffffffffffffffffffff1673ffffffffffffffffffffffffffffffffffffffff16815260200190815260200160002060006101000a81548160ff02191690831515021790555050565b600160009054906101000a900473ffffffffffffffffffffffffffffffffffffffff1673ffffffffffffffffffffffffffffffffffffffff163373ffffffffffffffffffffffffffffffffffffffff1614610559576040517f08c379a000000000000000000000000000000000000000000000000000000000815260040161055090611120565b60405180910390fd5b806008600084815260200190815260200160002060006101000a81548160ff0219169083151502179055505050565b60096020528160005260406000206020528060005260406000206000915091509054906101000a900460ff1681565b60076020528060005260406000206000915054906101000a900473ffffffffffffffffffffffffffffffffffffffff1681565b600360009054906101000a900473ffffffffffffffffffffffffffffffffffffffff1681565b60066020528060005260406000206000915090505481565b60086020528060005260406000206000915054906101000a900460ff1681565b60056020528060005260406000206000915090505481565b600260009054906101000a900473ffffffffffffffffffffffffffffffffffffffff1673ffffffffffffffffffffffffffffffffffffffff163373ffffffffffffffffffffffffffffffffffffffff16146106f0576040517f08c379a00000000000000000000000000000000000000000000000000000000081526004016106e7906111b2565b60405180910390fd5b600360009054906101000a900473ffffffffffffffffffffffffffffffffffffffff1673ffffffffffffffffffffffffffffffffffffffff166323b872dd3330876040518463ffffffff1660e01b815260040161074f939291906111d2565b600060405180830381600087803b15801561076957600080fd5b505af115801561077d573d6000803e3d6000fd5b5050505060016004600086815260200190815260200160002060006101000a81548160ff021916908315150217905550826005600086815260200190815260200160002081905550816006600086815260200190815260200160002081905550806007600086815260200190815260200160002060006101000a81548173ffffffffffffffffffffffffffffffffffffffff021916908373ffffffffffffffffffffffffffffffffffffffff16021790555050505050565b6008600082815260200190815260200160002060009054906101000a900460ff1661085f57600080fd5b6009600082815260200190815260200160002060006007600084815260200190815260200160002060009054906101000a900473ffffffffffffffffffffffffffffffffffffffff1673ffffffffffffffffffffffffffffffffffffffff1673ffffffffffffffffffffffffffffffffffffffff16815260200190815260200160002060009054906101000a900460ff166108f957600080fd5b600960008281526020019081526020016000206000600260009054906101000a900473ffffffffffffffffffffffffffffffffffffffff1673ffffffffffffffffffffffffffffffffffffffff1673ffffffffffffffffffffffffffffffffffffffff16815260200190815260200160002060009054906101000a900460ff1661098257600080fd5b6009600082815260200190815260200160002060008060009054906101000a900473ffffffffffffffffffffffffffffffffffffffff1673ffffffffffffffffffffffffffffffffffffffff1673ffffffffffffffffffffffffffffffffffffffff16815260200190815260200160002060009054906101000a900460ff16610a0a57600080fd5b6005600082815260200190815260200160002054471015610a2a57600080fd5b60006004600083815260200190815260200160002060006101000a81548160ff0219169083151502179055506000600260009054906101000a900473ffffffffffffffffffffffffffffffffffffffff1673ffffffffffffffffffffffffffffffffffffffff1647604051610a9e9061123a565b60006040518083038185875af1925050503d8060008114610adb576040519150601f19603f3d011682016040523d82523d6000602084013e610ae0565b606091505b5050905080610aee57600080fd5b600360009054906101000a900473ffffffffffffffffffffffffffffffffffffffff1673ffffffffffffffffffffffffffffffffffffffff166323b872dd306007600086815260200190815260200160002060009054906101000a900473ffffffffffffffffffffffffffffffffffffffff16856040518463ffffffff1660e01b8152600401610b80939291906111d2565b600060405180830381600087803b158015610b9a57600080fd5b505af1158015610bae573d6000803e3d6000fd5b505050505050565b60008054906101000a900473ffffffffffffffffffffffffffffffffffffffff1681565b600015156008600083815260200190815260200160002060009054906101000a900460ff16151503610c85576007600082815260200190815260200160002060009054906101000a900473ffffffffffffffffffffffffffffffffffffffff1673ffffffffffffffffffffffffffffffffffffffff166108fc479081150290604051600060405180830381858888f19350505050158015610c7f573d6000803e3d6000fd5b50610cef565b600260009054906101000a900473ffffffffffffffffffffffffffffffffffffffff1673ffffffffffffffffffffffffffffffffffffffff166108fc479081150290604051600060405180830381858888f19350505050158015610ced573d6000803e3d6000fd5b505b50565b806007600082815260200190815260200160002060009054906101000a900473ffffffffffffffffffffffffffffffffffffffff1673ffffffffffffffffffffffffffffffffffffffff163373ffffffffffffffffffffffffffffffffffffffff1614610d94576040517f08c379a0000000000000000000000000000000000000000000000000000000008152600401610d8b906112c1565b60405180910390fd5b6006600083815260200190815260200160002054341015610db457600080fd5b5050565b600160009054906101000a900473ffffffffffffffffffffffffffffffffffffffff1681565b60046020528060005260406000206000915054906101000a900460ff1681565b600073ffffffffffffffffffffffffffffffffffffffff82169050919050565b6000610e2982610dfe565b9050919050565b610e3981610e1e565b82525050565b6000602082019050610e546000830184610e30565b92915050565b6000819050919050565b610e6d81610e5a565b82525050565b6000602082019050610e886000830184610e64565b92915050565b600080fd5b610e9c81610e5a565b8114610ea757600080fd5b50565b600081359050610eb981610e93565b92915050565b600060208284031215610ed557610ed4610e8e565b5b6000610ee384828501610eaa565b91505092915050565b60008115159050919050565b610f0181610eec565b8114610f0c57600080fd5b50565b600081359050610f1e81610ef8565b92915050565b60008060408385031215610f3b57610f3a610e8e565b5b6000610f4985828601610eaa565b9250506020610f5a85828601610f0f565b9150509250929050565b6000610f6f82610dfe565b9050919050565b610f7f81610f64565b8114610f8a57600080fd5b50565b600081359050610f9c81610f76565b92915050565b60008060408385031215610fb957610fb8610e8e565b5b6000610fc785828601610eaa565b9250506020610fd885828601610f8d565b9150509250929050565b610feb81610eec565b82525050565b60006020820190506110066000830184610fe2565b92915050565b61101581610f64565b82525050565b6000602082019050611030600083018461100c565b92915050565b600080600080608085870312156110505761104f610e8e565b5b600061105e87828801610eaa565b945050602061106f87828801610eaa565b935050604061108087828801610eaa565b925050606061109187828801610f8d565b91505092959194509250565b600082825260208201905092915050565b7f6f6e6c7920696e73706563746f722063616e2063616c6c20746869732066756e60008201527f6374696f6e000000000000000000000000000000000000000000000000000000602082015250565b600061110a60258361109d565b9150611115826110ae565b604082019050919050565b60006020820190508181036000830152611139816110fd565b9050919050565b7f6f6e6c792073656c6c65722063616e2063616c6c20746869732066756e63746960008201527f6f6e000000000000000000000000000000000000000000000000000000000000602082015250565b600061119c60228361109d565b91506111a782611140565b604082019050919050565b600060208201905081810360008301526111cb8161118f565b9050919050565b60006060820190506111e7600083018661100c565b6111f4602083018561100c565b6112016040830184610e64565b949350505050565b600081905092915050565b50565b6000611224600083611209565b915061122f82611214565b600082019050919050565b600061124582611217565b9150819050919050565b7f6f6e6c792062757965722063616e2063616c6c20746869732066756e6374696f60008201527f6e00000000000000000000000000000000000000000000000000000000000000602082015250565b60006112ab60218361109d565b91506112b68261124f565b604082019050919050565b600060208201905081810360008301526112da8161129e565b905091905056fea2646970667358221220f012e62a671e68fda296bbd6eb2fdf33e7908fae220da936b2c052ba44b9039f64736f6c63430008110033",
  "linkReferences": {},
  "deployedLinkReferences": {}
}